:0C0000000C9407060C9400000C94000007
:10000C000C9400000C9400000C9400000C94000064
:10001C000C9400000C9400000C9438090C94000013
:10002C000C9400000C9400000C9400000C94000044
:10003C000C9400000C9400000C9400000C94000034
:10004C000C9400000C9400000C945A080C940000C2
:10005C000C9400000C9400000C9400000C948C0880
:10006C000C9400000C9400000C9400000C94000004
:10007C000C9400000C9400000C9400000C940000F4
:10008C00000000000000005F0000000700070014E3
:10009C007F147F14242A7F2A1223130864623649A2
:1000AC005522500005030000001C22410000412293
:1000BC001C00082A1C2A0808083E080800503000BA
:1000CC00000808080808003030000020100804025E
:1000DC003E5149453E00427F400042615149462114
:1000EC0041454B311814127F1027454545393C4A80
:1000FC0049493001710905033649494936064949D0
:10010C00291E003636000000563600000008142266
:10011C00411414141414412214080002015109064C
:10012C00324979413E7E1111117E7F494949363E53
:10013C00414141227F4141221C7F494949417F096C
:10014C000901013E414151327F0808087F00417F7F
:10015C0041002040413F017F081422417F40404034
:10016C00407F0204027F7F0408107F3E4141413EE4
:10017C007F090909063E4151215E7F09192946462E
:10018C004949493101017F01013F4040403F1F2057
:10019C0040201F7F2018207F631408146303047809
:1001AC000403615149454300007F4141020408109A
:1001BC002041417F000004020102044040404040C5
:1001CC00000102040020545454787F4844443838C9
:1001DC0044444420384444487F3854545418087ECE
:1001EC00090102081454543C7F0804047800447D2F
:1001FC0040002040443D00007F10284400417F40D7
:10020C00007C041804787C0804047838444444388E
:10021C007C14141408081414187C7C080404084872
:10022C0054545420043F4440203C4040207C1C202B
:10023C0040201C3C4030403C44281028440C50507A
:10024C00503C4464544C44000836410000007F008C
:10025C0000004136080008082A1C08081C2A080857
:10026C00808386898C8F9295989C9FA2A5A8ABAE13
:10027C00B0B3B6B9BCBFC1C4C7C9CCCED1D3D5D825
:10028C00DADCDEE0E2E4E6E8EAECEDEFF0F2F3F5DE
:10029C00F6F7F8F9FAFBFCFCFDFEFEFFFFFFFFFF93
:1002AC00FFFFFFFFFFFFFEFEFDFCFCFBFAF9F8F77A
:1002BC00F6F5F3F2F0EFEDECEAE8E6E4E2E0DEDC92
:1002CC00DAD8D5D3D1CECCC9C7C4C1BFBCB9B6B3AB
:1002DC00B0AEABA8A5A29F9C9895928F8C89868373
:1002EC00807C797673706D6A6763605D5A57545180
:1002FC004F4C494643403E3B383633312E2C2A274F
:10030C002523211F1D1B1917151312100F0D0C0A75
:10031C0009080706050403030201010000000000A0
:10032C000000000000000101020303040506070899
:10033C00090A0C0D0F1012131517191B1D1F212361
:10034C0025272A2C2E313336383B3E404346494C28
:10035C004F5154575A5D6063676A6D707376797C40
:10036C00000024F473CB63AE9798A287127AF96ECF
:10037C00BA65E65D315761514B4CCE47D1433F4096
:10038C00093D213A7D371335DD32D430F32E362D2D
:10039C00992B182AB12861272626FE24E723E1226F
:1003AC00E921FE2020204D1F851EC61D101D631C3B
:1003BC00BE1B201B891AF9196E19EA186A18EF1757
:1003CC007A1708179B163216CC156A150C15B11432
:1003DC0058140314B01360131313C8127F1238127D
:1003EC00F411B11170113111F410B9107F104710C4
:1003FC001010DA0FA60F740F420F120FE30EB50E8A
:10040C00880E5C0E320E080EDF0DB70D900D6A0DC6
:10041C00450D200DFC0CD90CB70C960C750C550C1D
:10042C00350C160CF80BDA0BBD0BA00B840B690BFF
:10043C004E0B330B190BFF0AE60ACD0AB50A9D0ABF
:10044C00860A6F0A580A420A2C0A170A010AED0991
:10045C00D809C409B0099D098909760964095109AB
:10046C003F092E091C090B09FA08E908D808C80825
:10047C00B808A808990889087A086B085C084E081F
:10048C003F083108230816080808FA07ED07E007AB
:10049C00D307C607BA07AD07A107950789077D07DC
:1004AC00710766075B074F07440739072E072307B9
:1004BC0019070E070407FA06F006E606DC06D20654
:1004CC00C806BF06B506AC06A206990690068706B6
:1004DC007E0675066D0664065C0653064B064306DF
:1004EC003A0632062A062206350C250C160C070C89
:1004FC00F80BE90BDA0BCB0BBD0BAE0BA00B920B75
:10050C00840B760B690B5B0B4E0B400B330B260BE2
:10051C00190B0C0BFF0AF30AE60ADA0ACD0AC10A18
:10052C00B50AA90A9D0A920A860A7A0A6F0A640A0F
:10053C00580A4D0A420A370A2C0A210A170A0C0AD1
:10054C00010AF709ED09E209D809CE09C409BA096B
:10055C00B009A6099D0993098909800976096D09D5
:10056C0064095B09510948093F0936092E09250917
:10057C001C0913090B090209FA08F108E908E1083A
:10058C00D808D008C808C008B808B008A808A0083F
:10059C0099089108890882087A0873086B0864081E
:1005AC005C0855084E0847083F08380831082A08E7
:1005BC0023081C0816080F0808080108FA07F40796
:1005CC00ED07E707E007DA07D307CD07C607C00733
:1005DC00BA07B407AD07A707A1079B0795078F07B5
:1005EC00890783077D07770771076C076607600724
:1005FC005B0755074F074A0744073F07390734077E
:10060C002E07290723071E07190714070E070907CA
:10061C000407FF06FA06F506F006EB06E606E10609
:10062C00DC06D706D206CD06C806C306BF06BA0638
:10063C00B506B006AC06A706A2069E069906950658
:10064C0090068C06870683067E067A06750671066A
:10065C006D066806640660065C06570653064F0670
:10066C004B06470643063E063A06360632062E066B
:10067C002A06260622061E06350C2D0C250C1E0CF1
:10068C00160C0E0C070CFF0BF80BF00BE90BE10B27
:10069C00DA0BD30BCB0BC40BBD0BB60BAE0BA70BF2
:1006AC00A00B990B920B8B0B840B7D0B760B6F0BAA
:1006BC00690B620B5B0B540B4E0B470B400B3A0B4D
:1006CC00330B2C0B260B1F0B190B120B0C0B060BE5
:1006DC00FF0AF90AF30AEC0AE60AE00ADA0AD40A73
:1006EC00CD0AC70AC10ABB0AB50AAF0AA90AA30AEE
:1006FC009D0A970A920A8C0A860A800A7A0A750A57
:10070C006F0A690A640A5E0A580A530A4D0A480AB3
:10071C00420A3D0A370A320A2C0A270A210A1C0A05
:10072C00170A110A0C0A070A010AFC09F709F2094F
:10073C00ED09E709E209DD09D809D309CE09C90990
:10074C00C409BF09BA09B509B009AB09A609A109C1
:10075C009D09980993098E098909850980097B09E6
:10076C00760972096D09680964095F095B09560904
:10077C0051094D09480944093F093B093609320919
:10078C002E092909250920091C09180913090F0923
:10079C000B0907090209FE08FA08F608F108ED082A
:1007AC00E908E508E108DD08D808D408D008CC0829
:1007BC00C808C408C008BC08B808B408B008AC081D
:1007CC00A808A408A0089D089908950891088D0808
:1007DC008908860882087E087A08760873086F08EC
:1007EC006B086708640860085C08590855085108CC
:1007FC004E084A08470843083F083C0838083508A3
:10080C0031082E082A0827084710401039103210DA
:10081C002B1024101D101710101009100210FC0FB3
:10082C00F50FEE0FE80FE10FDA0FD40FCD0FC70F56
:10083C00C00FBA0FB30FAD0FA60FA00F9A0F930FE7
:10084C008D0F870F800F7A0F740F6D0F670F610F6D
:10085C005B0F550F4E0F480F420F3C0F360F300FEA
:10086C002A0F240F1E0F180F120F0C0F060F000F5C
:10087C00FA0EF40EEF0EE90EE30EDD0ED70ED20ECD
:10088C00CC0EC60EC00EBB0EB50EAF0EAA0EA40E2D
:10089C009F0E990E930E8E0E880E830E7D0E780E83
:1008AC00720E6D0E670E620E5C0E570E520E4C0ED3
:1008BC00470E420E3C0E370E320E2C0E270E220E19
:1008CC001D0E180E120E0D0E080E030EFE0DF90D58
:1008DC00F30DEE0DE90DE40DDF0DDA0DD50DD00D98
:1008EC00CB0DC60DC10DBC0DB70DB20DAD0DA90DC7
:1008FC00A40D9F0D9A0D950D900D8B0D870D820DEE
:10090C007D0D780D740D6F0D6A0D650D610D5C0D0F
:10091C00570D530D4E0D490D450D400D3C0D370D2A
:10092C00320D2E0D290D250D200D1C0D170D130D3F
:10093C000E0D0A0D050D010DFC0CF80CF40CEF0C52
:10094C00EB0CE70CE20CDE0CD90CD50CD10CCD0C5D
:10095C00C80CC40CC00CBB0CB70CB30CAF0CAB0C60
:10096C00A60CA20C9E0C9A0C960C920C8D0C890C5D
:10097C00850C810C7D0C790C750C710C6D0C690C53
:10098C00650C610C5D0C590C550C510C4D0C490C43
:10099C00450C410C3D0C390C6A1862185A18531846
:1009AC004B1843183B1834182C1824181D181518FC
:1009BC000E180618FF17F717EF17E817E017D917D7
:1009CC00D217CA17C317BB17B417AD17A5179E17A5
:1009DC0097178F17881781177A1772176B17641769
:1009EC005D1756174F1747174017391732172B1724
:1009FC0024171D1716170F1708170117FA16F316D9
:100A0C00ED16E616DF16D816D116CA16C416BD1684
:100A1C00B616AF16A816A2169B1694168E16871627
:100A2C0080167A1673166D1666165F1659165216C0
:100A3C004C1645163F16381632162B1625161F1651
:100A4C00181612160B160516FF15F815F215EC15DF
:100A5C00E515DF15D915D315CC15C615C015BA1566
:100A6C00B415AD15A715A1159B1595158F158915E1
:100A7C0083157D15771570156A1564155E15581557
:100A8C0053154D15471541153B1535152F152915C2
:100A9C0023151D15181512150C1506150015FB142C
:100AAC00F514EF14E914E414DE14D814D214CD1494
:100ABC00C714C114BC14B614B114AB14A514A014EF
:100ACC009A1495148F148A1484147F147914741442
:100ADC006E14691463145E14581453144E14481491
:100AEC0043143D14381433142D14281423141D14DA
:100AFC00181413140D1408140314FE13F813F31321
:100B0C00EE13E913E413DE13D913D413CF13CA1362
:100B1C00C513C013BB13B513B013AB13A613A1139A
:100B2C009C13971392138D1388131027E8036400FA
:100B3C000A000100001000011000010000050F0563
:100B4C00140523052E05000020205350574D20740A
:100B5C00657374212121006279203A0053682E209C
:100B6C004E6F757262616B68736800436F70797257
:100B7C00696768743A00202020204F5A48414E2063
:100B8C004B44004652513A20253033642E253031E7
:100B9C006420487A20004143433A202530336420B6
:100BAC0073656320004445433A2025303364207339
:100BBC00656320000100010001002D4E414E0049EB
:100BCC004E4600000F000005540B05000F05630B8B
:100BDC000F001405680B0B002305770B0D002E0579
:100BEC00820B0A005505480B02000400520B010051
:100BFC006205C00B01006305C20B01006A05C40B42
:100C0C000000F894EE27ECBBF1E0F5BFE5BFE093F4
:100C1C006C00F8E1F1BDE1BD8DE0A2E0BB27ED93E6
:100C2C008A95E9F780E090E1A0E0B1E0ED930197BF
:100C3C00E9F7E0EDFBE085919591009761F0A591C6
:100C4C00B59105901590BF01F00105900D9201979B
:100C5C00E1F7FB01F0CFEFEFEDBFE0E1EEBFC0E05D
:100C6C00D5E00C945306A79AAF98A59AAD98A69A7E
:100C7C00AE980895AA931A9310E0E9811E1750F4C8
:100C8C00AF9AACE30E94070CAF98A4EB0E94070C40
:100C9C001F5FF3CF18810C94300A03D047D0FFCFDD
:100CAC00FFCFF894E0DF0E941A080E940A0C11D1C1
:100CBC00AAE071D1A1E07ED1A2E0DCDF0E940A0C97
:100CCC004BD104D0A1E0D6DF78940895E2E0EA930A
:100CDC00A0E0EDD0A0915505B09156050E940E0CE8
:100CEC00A2E0E5D0A0915705B09158050E940E0CDA
:100CFC00A3E0DDD0A0915905B0915A050E940E0CCD
:100D0C00A5E0D5D0A0915B05B0915C050E940E0CBE
:100D1C00A6E0CDD0A0915D05B0915E050E940308C0
:100D2C00A8EBBBE00E94A30C17D1089522970E9458
:100D3C00380D10E020E030E000E00E94D309E09193
:100D4C006100EE7F0E94130CEE7FE0936200E09155
:100D5C006100ED7F0E94130CED7FE0936200E09147
:100D6C006100EB7F0E94130CEB7FE0936200A0917B
:100D7C003B05B0913C05A217B30710F40C94260761
:100D8C00E0913B05F0913C05EC59FF4F9F01A0E031
:100D9C000E944008AF01A1E00E945408EF83A2E03A
:100DAC000E945408EE83DA010E940F0AAF01AF8152
:100DBC000E94320AEF83AE810E943D0AEE830E94AC
:100DCC00180CEFE8FBE0FA93EA93DA01EAE0F0E0C2
:100DDC000E94EB0C662777270E94330DDA01EAE0BC
:100DEC00F0E00E94230D662777270E94330D88E0E0
:100DFC000E94BA0B2C96E2E0EA93A1E00E941D0C33
:100E0C00E2EAFBE0FA93EA93EB850E94240CA3E060
:100E1C000E941D0CE1EBFBE0FA93EA93EA850E9439
:100E2C00240CA5E044D0ADE3B5E00E9403080F5FAD
:100E3C00053011F411E004C00A3011F400E010E0A8
:100E4C00103019F0E5B3E06202C0E5B3EF7DE5BB0D
:100E5C008ECFAA931A930A93AB98A898EB81E030A3
:100E6C0019F0E5B3E26002C0E5B3ED7FE5BBA89AEB
:100E7C0007E010E01123B2F0A898E02FA1E0B0E059
:100E8C000E94B50CAA81B0E0EA23FB23309719F03D
:100E9C00E5B3E26002C0E5B3ED7FE5BBA89A015073
:100EAC001040E8CFAB9A1981088124960895AA9333
:100EBC00E0E0EA93E981EF70E06B0E94300CEF7098
:100ECC000E94300CE295E770E061AE2FC2DF0C940B
:100EDC00300AA39AAB9AA19AA998A09AA898A29A18
:100EEC00AA98AB98A2E30E94070CAA9AE0E0EA93B6
:100EFC00A3E20E94370CA0E90E94370CA4EA0E94DE
:100F0C00370CAFE20E94370CA0E40E94370CA0EB28
:100F1C000E94370CA0E10E94370CA0E00E94370C15
:100F2C00A8EC0E94370CA1EA0E94370CACEA0E9494
:100F3C00370CA7E00E94370CAFEA8BDF0DD0E0E056
:100F4C00EA93A7EA86DF0E940A0CE0E0EA93A6EA9D
:100F5C0080DF0E940A0C08951A930A93E0E0EA934A
:100F6C00A0E0A5DFE0E0EA93AEEA73DF00E0093031
:100F7C0058F410E0103630F4E1E0EA93A0E069DFB9
:100F8C001F5FF8CF0F5FF3CFE0E0EA93AFEA61DFCA
:100F9C00099119910895AA93E0E0EA93A1E20E94C5
:100FAC00370CE981E068AE2F0E94370CA0E251DFCC
:100FBC000C94470A0895AA931A9310E01530B0F4D4
:100FCC00E1E0EA93EA81F0E0B097A5E0B0E00E949E
:100FDC00C30CE457FF4FDF01E12FF0E0EA0FFB1FDA
:100FEC00E491EE0FAE2F35DF1F5FE8CFE1E0EA931F
:100FFC00A0E02FDF18810C94300ABA93AA93E0E09A
:10100C00EA93AEEA26DFA881B981EC91E03031F0A9
:10101C00ED91A883B983AE2FCEDFF5CFE0E0EA9354
:10102C00AFEA17DF0C94300A10D00BD0A6E00FD02B
:10103C00A1E014D008D0E0E0E0935F05339A7894F7
:10104C000895359808953D980895379A0895AA9370
:10105C00E6B1E87FA881EA2BE6B913C2AA93E7B1FF
:10106C00EF73AE2FE881E295E07FEE0FEE0FEA2BE7
:10107C00E7B907C2AA93E0E0E0935F05E7B1E07E31
:10108C00AE2FE881EF71EA2BE7B9349A369AE091EA
:10109C005F05E030E1F3E4B1F5B1F3C1AA93A881A7
:1010AC00E9DF0E94BE0CEDC1EA93E1E0E0935F053D
:1010BC00E9911895AA930E943A0DAD81A03818F4C5
:1010CC00ED81E09501C0ED813E2FE32FF0E0EE0FB6
:1010DC00FF1F8F010F5F1040EC81F0E0D8010E94E0
:1010EC00C30C8F01012F112701501F4F1695079527
:1010FC000F5F1F4F302FAD81A03818F4E32FE09510
:10110C0001C0E32F0E94410D269608950A921A926F
:10111C00FA926A937A938A939A93AA93BA93EA93DC
:10112C00FA93EFB7EA9324970E943C0CAC31E3E0BE
:10113C00BE0720F0E0916605E05F21C00E943C0CE8
:10114C00A435E2E0BE0720F0E0916605E85F17C029
:10115C000E943C0CAC38E1E0BE0720F0E091660543
:10116C00EC5F0DC00E943C0CA43CE0E0BE0720F0FC
:10117C00E0916605EE5F03C0E0916605EF5FE093DA
:10118C0066050E943C0CAF3EE1E0BE0768F00E9491
:10119C00410C0E94450C0E944C0C0E94500C0E9469
:1011AC00580C0E945C0C4AC00E943C0CA036E0E03B
:1011BC00BE07A8F40E94410C0E94450CEA93A9E1D9
:1011CC0079DF0E944C0C0E94500CEA93A9E172DF6B
:1011DC000E94580C0E945C0CEA93A9E12EC00E945C
:1011EC00640CEF55F04066277727A6EEB0E080E060
:1011FC0090E00E94CB0CDF01CB01E0E9F1E060E074
:10120C0070E00E94FE0CE75EFF4F6F4F7F4F0E9415
:10121C002E0D0E94410C0E94450CEA93A9814ADFD5
:10122C000E944C0C0E94500CEA93A98143DF0E944F
:10123C00580C0E945C0CEA93A9813CDFA8E7B0E053
:10124C00F0E0ED93FC932496E991EFBFF991E991CD
:10125C00B991A9919991899179916991F990199084
:10126C00099018950A92AA93BA93EA93FA93EFB756
:10127C00EA930E94690CAE17BF07B0F4E0E0E0936C
:10128C006905E0916805EF5FE0936805E091620500
:10129C00A0916805AE1738F0E0E0E0936805A4E68D
:1012AC00B5E00E946E0C23C00E94690CEA17FB0784
:1012BC00C8F4E0E0E0936805E0916905EF5FE09326
:1012CC006905E0916305A0916905AE1750F0E0E067
:1012DC00E0936905A4E6B5E0ED91FD913197FE939D
:1012EC00EE9305C0E0E0E0936805E09369050E9489
:1012FC00640C309781F10E94640CACE6B3E0EE0F05
:10130C00FF1FEA0FFB1F0E942A0D3197E093860006
:10131C00F0938700E0916705E030E1F4EFB5E06809
:10132C00EFBDEFB5E062EFBDEFB5E860EFBDE1E01A
:10133C00E0936705E0918A00E87FE160E0938A0022
:10134C00E0917C00E061E0937C00E0917D00E06145
:10135C00E0937D0016C0EFB5EF77EFBDEFB5EF7DF5
:10136C00EFBDEFB5E77FEFBDE0E0E0936705E091FF
:10137C008A00E87FE0938A00E0917D00EF7EE093A5
:10138C007D00ABE3B5E00E946E0CE991EFBFF991E3
:10139C00E991B991A99109901895BD9AEFB5EF779C
:1013AC00EFBDBE9AEFB5EF7DEFBDBF9AEFB5E77F0E
:1013BC00EFBD0E94410C30960E94740CFBBDEABD3F
:1013CC000E94410CEC5AFF4F0E94740CF9BDE8BD11
:1013DC000E94410CE655FF4FF0E0A8E7B0E0F0E0CA
:1013EC00ED93FC93E1E0EFBDEEB5E87FE160EEBD7F
:1013FC00E3E0E0938B00E8E1E0938A00ECE7E3BDE7
:10140C00EBE0E5BDE6B7E068E6BFE7B7E068E7BF4D
:10141C000895BA93AA93A881B9811E9730F4E0E09D
:10142C00E0936005E093610510C0A881B981A23FEB
:10143C00E3E0BE0720F4E881F9813D9702C0E4EEB9
:10144C00F3E0E0936005F0936105E0916005F091A5
:10145C006105349622960895AA93E881E03009F04C
:10146C0001C0E1E0E0936205E09162050AC0AA9335
:10147C00E881E03009F001C0E1E0E0936305E09120
:10148C00630521960895BA93AA931A930A93AA8195
:10149C00BB8112960E94260D309729F1AA81BB813F
:1014AC0014960E94260D8F01309761F00230E0E017
:1014BC001E07C0F0F80131978F01AA81BB811496E9
:1014CC00ED93FC93AA81BB8112960E946E0C31970E
:1014DC00AC81A083AA81BB810E94260DFF2312F050
:1014EC000E946E0C06C0AA81BB81EFEFFFEFED935B
:1014FC00FC931981088125960895BA93AA9326978F
:10150C000E94380D10E0AC85BD85E0E0F0E0ED9375
:10151C00FC93EA89FB893196EA8BFB8B3197E4913A
:10152C002E2FE03011F40C94B20BE12FE03039F493
:10153C00253211F411E002C00E94770C0CC1E1308D
:10154C00A9F4253219F40E94770C04C112E040E092
:10155C0000E02D3211F401E0FEC02B3211F44BE20D
:10156C00FAC0203211F440E2F6C002C0E23039F485
:10157C0050E013E0203311F40068EDC004C0E330F8
:10158C0011F00C94B10B203310F02A3308F007C083
:10159C00AAE05A9F502DE22FE0535E0FDCC0E22FE1
:1015AC00E33649F40E947E0CE889F989A481AA9358
:1015BC000E94840CCFC0E33741F40E947E0C0E9441
:1015CC008A0C0E94EE0B1E2F0AC0E03761F40E94B9
:1015DC007E0C0E948A0C0E94FA0B1E2F086002607F
:1015EC000F7730E035C0E43611F0E93611F40460C1
:1015FC0002C0E53731F4E6E3FBE0EE83FF8315E050
:10160C000DC0E83511F4086004C0E83711F00C94F3
:10161C00B00BE0E4FBE0EE83FF8314E002FF14C0A8
:10162C000E947E0C0E94940CAB85AA233AF4EA85A6
:10163C00FB850E94B10CEA87FB874DE2403011F02C
:10164C001F5F01C00B7F04C00E947E0C0E94940C93
:10165C0000FD11C0151778F407FF08C002FF04C085
:10166C000B7F242F115001C020E301C020E20E9407
:10167C00770C5150EFCF312F01FF17C03030A1F054
:10168C0003FF06C0EE81FF812591EE83FF8305C029
:10169C00AE81BF812D91AE83BF830E94770C5030F9
:1016AC0009F051503150EACF4BC020E3EE81FF815D
:1016BC000E942A0DE887F987EE81FF813296EE832E
:1016CC00FF83E885F985AA85BB85AE17BF0750F067
:1016DC002F5FA885B985EA85FB85EA1BFB0BEA879A
:1016EC00FB87EFCF2A3328F003FF02C0295F01C02C
:1016FC00295D04FD1AC0213320F4A885B985119702
:10170C0009F409C0531710F000FF01C013C020E208
:10171C0007FF0BC020E3006102FF07C00B7F4A9359
:10172C000E94840C503009F051500E94770C5030BC
:10173C0009F051503150A885B985129708F0B5CFF2
:10174C0000FF08C0503031F05150E0E2EA930E94A3
:10175C00840CF8CF10E0DDCEAC85BD850E94260D43
:10176C000E943F0D64960895FF92F82E26970E94D2
:10177C003A0D0E949C0C309719F4EFEFFFEF23C049
:10178C00DE0116960E94AD0C8D010E949C0CEE831E
:10179C00FF83E0E0E887E987DE011A960E94AD0C32
:1017AC000E94260DFA93EA931A930A93E9E4FAE05D
:1017BC00FA93EA93DE011A96A0DE9F01AE81BF81F7
:1017CC00E0E0EC93F9010E94410D2A96FF900895F8
:1017DC00BA93AA93A991B991EE27FF276D9166232D
:1017EC0011F03196FBCF0895BA93AA93AA27BB2781
:1017FC00E991F9910590002011F01196FBCFFD01B4
:10180C000895B0E00C94A30CA4EFB1E00C94A30CDD
:10181C000E940308E2E0EA930895E0936100E091EE
:10182C0062000895EDE3F5E0FA93EA9308950E94BF
:10183C005D07ADE3B5E00E940308F4CFFF276627F0
:10184C0077270E94330D84E00E94BA0B2896E2E0C1
:10185C00EA930895AE2F0E942F07E0E0EA93EA8105
:10186C0008950E942F07E0E0EA930895A091640583
:10187C00B09165050895E0916605F0E00895309605
:10188C00F0E0F0E0E459FD4FE4910895F0E0FBBD89
:10189C00EABDF1CFEC5AFF4FF0E0F0E0E459FD4F18
:1018AC00E4910895F0E0F9BDE8BDE5CFE655FF4FB2
:1018BC00F0E0F0E0E459FD4FE4910895E091640507
:1018CC00F09165050895E0916005F0916105CECF2A
:1018DC00ED91FD913196FE93EE930895F0E0F0E0DA
:1018EC0008952A93AD85BE85EF85F88909950895ED
:1018FC00E889F9893497E88BF98B0895AD85BE8515
:10190C00EF85F88909950895A889B98914960E94DC
:10191C00260DEE83FF83AE81BF810895A889B98916
:10192C0014960E94260DEA87FB870895DE011C960B
:10193C000E94AD0C0E94260D0895109639F080ED92
:10194C0097E00197F1F7A8951197C9F7089500242E
:10195C00AF0DB01D0895F195E195F0400895EE237B
:10196C000E2EFD0121F0EE0FFF1F0A94E1F70895F2
:10197C00F695E795F695E7950895FA9FF02DEB9F70
:10198C00F00DEA9FE02DF10D08957A9F702D6B9F5D
:10199C00700DF89F700DE99F700D6A9F602D710D91
:1019AC00FB9F600D711DE89F600D711D8827FA9FCC
:1019BC00F02D610D781FEB9FF00D611D781FEA9FD4
:1019CC00E02DF10D681F781F08950024112490E17B
:1019DC00AA0FBB1F001C111C0E1A1F0A18F40E0EA6
:1019EC001F1E01C0A1609A9599F7FD01D0010895C1
:1019FC003F934F935F93002411244427552730E2E3
:101A0C00AA0FBB1F881F991F001C111C441F551FB8
:101A1C000E1A1F0A460B570B28F40E0E1F1E461FDC
:101A2C00571F01C0A1603A9559F7FD01BC01D001C7
:101A3C00CA015F914F913F910895C7DFFD01089551
:101A4C00ED91FC91119708950590F491E02D089576
:101A5C00E883F9836A837B8308957A936A93FA9374
:101A6C00EA9308955A934A933A932A931A930A93B2
:101A7C0008955D814C813B812A81198108810895EB
:00000001FF
