:100000000C949B050C94B8050C94B8050C94B80599
:100010000C94B8050C94B8050C94B8050C94B8056C
:100020000C94B8050C9440080C94B8050C94B805D1
:100030000C94B8050C94B8050C94B8050C94B8054C
:100040000C94B8050C94B8050C94B8050C94B8053C
:100050000C94B8050C941D070C94B8050C94B805C5
:100060000C94B8050C94B8050C9448070C94B8058A
:100070000C94B8050C94B8050C94B8050C94B8050C
:100080000C94B8050C94B8050C94B8050000000059
:100090000000005F00000007000700147F147F14B9
:1000A000242A7F2A122313086462364955225000FD
:1000B00005030000001C2241000041221C00082A08
:1000C0001C2A0808083E08080050300000080808EC
:1000D0000808003030000020100804023E51494555
:1000E0003E00427F400042615149462141454B312B
:1000F0001814127F1027454545393C4A49493001BB
:10010000710905033649494936064949291E003611
:100110003600000056360000000814224114141462
:100120001414412214080002015109063249794190
:100130003E7E1111117E7F494949363E414141229F
:100140007F4141221C7F494949417F090901013E04
:10015000414151327F0808087F00417F4100204023
:10016000413F017F081422417F404040407F02040C
:10017000027F7F0408107F3E4141413E7F0909090B
:10018000063E4151215E7F091929464649494931B8
:1001900001017F01013F4040403F1F2040201F7F61
:1001A0002018207F6314081463030478040361514A
:1001B00049454300007F4141020408102041417F2E
:1001C00000000402010204404040404000010204DB
:1001D0000020545454787F484444383844444420E0
:1001E000384444487F3854545418087E09010208A2
:1001F0001454543C7F0804047800447D400020409F
:10020000443D00007F10284400417F40007C0418DA
:1002100004787C0804047838444444387C1414146A
:1002200008081414187C7C0804040848545454200A
:10023000043F4440203C4040207C1C2040201C3C8B
:100240004030403C44281028440C5050503C4464FA
:10025000544C44000836410000007F000000413645
:10026000080008082A1C08081C2A080880838689B8
:100270008C8F9295989C9FA2A5A8ABAEB0B3B6B94F
:10028000BCBFC1C4C7C9CCCED1D3D5D8DADCDEE07F
:10029000E2E4E6E8EAECEDEFF0F2F3F5F6F7F8F970
:1002A000FAFBFCFCFDFEFEFFFFFFFFFFFFFFFFFF71
:1002B000FFFFFEFEFDFCFCFBFAF9F8F7F6F5F3F2A2
:1002C000F0EFEDECEAE8E6E4E2E0DEDCDAD8D5D304
:1002D000D1CECCC9C7C4C1BFBCB9B6B3B0AEABA850
:1002E000A5A29F9C9895928F8C898683807C797635
:1002F00073706D6A6763605D5A5754514F4C49463D
:1003000043403E3B383633312E2C2A272523211FEC
:100310001D1B1917151312100F0D0C0A09080706DB
:1003200005040303020101000000000000000000BA
:10033000000001010203030405060708090A0C0D69
:100340000F1012131517191B1D1F212325272A2CE7
:100350002E313336383B3E404346494C4F5154577B
:100360005A5D6063676A6D707376797C000024F46F
:1003700073CB63AE9798A287127AF96EBA65E65D81
:10038000315761514B4CCE47D1433F40093D213A53
:100390007D371335DD32D430F32E362D992B182AC4
:1003A000B12861272626FE24E723E122E921FE2049
:1003B00020204D1F851EC61D101D631CBE1B201B4B
:1003C000891AF9196E19EA186A18EF177A170817B7
:1003D0009B163216CC156A150C15B114581403145B
:1003E000B01360131313C8127F123812F411B11135
:1003F00070113111F410B9107F1047101010DA0F7E
:10040000A60F740F420F120FE30EB50E880E5C0E8E
:10041000320E080EDF0DB70D900D6A0D450D200D43
:10042000FC0CD90CB70C960C750C550C350C160C35
:10043000F80BDA0BBD0BA00B840B690B4E0B330BC7
:10044000190BFF0AE60ACD0AB50A9D0A860A6F0A49
:10045000580A420A2C0A170A010AED09D809C409E8
:10046000B0099D0989097609640951093F092E09D6
:100470001C090B09FA08E908D808C808B808A80830
:10048000990889087A086B085C084E083F0831080B
:10049000230816080808FA07ED07E007D307C60780
:1004A000BA07AD07A107950789077D07710766079A
:1004B0005B074F07440739072E07230719070E0765
:1004C0000407FA06F006E606DC06D206C806BF06F2
:1004D000B506AC06A2069906900687067E06750646
:1004E0006D0664065C0653064B0643063A06320662
:1004F0002A062206350C250C160C070CF80BE90B06
:10050000DA0BCB0BBD0BAE0BA00B920B840B760B57
:10051000690B5B0B4E0B400B330B260B190B0C0BB3
:10052000FF0AF30AE60ADA0ACD0AC10AB50AA90ADD
:100530009D0A920A860A7A0A6F0A640A580A4D0AC4
:10054000420A370A2C0A210A170A0C0A010AF7097B
:10055000ED09E209D809CE09C409BA09B009A6090A
:100560009D0993098909800976096D0964095B0968
:10057000510948093F0936092E0925091C091309A3
:100580000B090209FA08F108E908E108D808D008BF
:10059000C808C008B808B008A808A00899089108B9
:1005A000890882087A0873086B0864085C08550893
:1005B0004E0847083F08380831082A0823081C0855
:1005C00016080F0808080108FA07F407ED07E707FF
:1005D000E007DA07D307CD07C607C007BA07B40795
:1005E000AD07A707A1079B0795078F078907830713
:1005F0007D07770771076C07660760075B0755077C
:100600004F074A0744073F07390734072E072907D2
:1006100023071E07190714070E0709070407FF061B
:10062000FA06F506F006EB06E606E106DC06D70656
:10063000D206CD06C806C306BF06BA06B506B00682
:10064000AC06A706A2069E069906950690068C069D
:10065000870683067E067A06750671066D066806AD
:10066000640660065C06570653064F064B064706AF
:1006700043063E063A06360632062E062A062606A9
:1006800022061E06350C2D0C250C1E0C160C0E0C0D
:10069000070CFF0BF80BF00BE90BE10BDA0BD30B9C
:1006A000CB0BC40BBD0BB60BAE0BA70BA00B990B62
:1006B000920B8B0B840B7D0B760B6F0B690B620B14
:1006C0005B0B540B4E0B470B400B3A0B330B2C0BB5
:1006D000260B1F0B190B120B0C0B060BFF0AF90A4A
:1006E000F30AEC0AE60AE00ADA0AD40ACD0AC70AD3
:1006F000C10ABB0AB50AAF0AA90AA30A9D0A970A4A
:10070000920A8C0A860A800A7A0A750A6F0A690AAE
:10071000640A5E0A580A530A4D0A480A420A3D0A08
:10072000370A320A2C0A270A210A1C0A170A110A58
:100730000C0A070A010AFC09F709F209ED09E709A1
:10074000E209DD09D809D309CE09C909C409BF09DD
:10075000BA09B509B009AB09A609A1099D0998090B
:1007600093098E098909850980097B09760972092F
:100770006D09680964095F095B09560951094D094A
:10078000480944093F093B09360932092E0929095C
:10079000250920091C09180913090F090B09070964
:1007A0000209FE08FA08F608F108ED08E908E5086C
:1007B000E108DD08D808D408D008CC08C808C40867
:1007C000C008BC08B808B408B008AC08A808A40859
:1007D000A0089D089908950891088D088908860841
:1007E00082087E087A08760873086F086B08670825
:1007F000640860085C085908550851084E084A0802
:10080000470843083F083C083808350831082E08D7
:100810002A08270847104010391032102B102410D6
:100820001D101710101009100210FC0FF50FEE0F1D
:10083000E80FE10FDA0FD40FCD0FC70FC00FBA0FBB
:10084000B30FAD0FA60FA00F9A0F930F8D0F870F49
:10085000800F7A0F740F6D0F670F610F5B0F550FCD
:100860004E0F480F420F3C0F360F300F2A0F240F48
:100870001E0F180F120F0C0F060F000FFA0EF40EBA
:10088000EF0EE90EE30EDD0ED70ED20ECC0EC60E25
:10089000C00EBB0EB50EAF0EAA0EA40E9F0E990E83
:1008A000930E8E0E880E830E7D0E780E720E6D0ED8
:1008B000670E620E5C0E570E520E4C0E470E420E25
:1008C0003C0E370E320E2C0E270E220E1D0E180E69
:1008D000120E0D0E080E030EFE0DF90DF30DEE0DAA
:1008E000E90DE40DDF0DDA0DD50DD00DCB0DC60DE4
:1008F000C10DBC0DB70DB20DAD0DA90DA40D9F0D11
:100900009A0D950D900D8B0D870D820D7D0D780D37
:10091000740D6F0D6A0D650D610D5C0D570D530D56
:100920004E0D490D450D400D3C0D370D320D2E0D70
:10093000290D250D200D1C0D170D130D0E0D0A0D83
:10094000050D010DFC0CF80CF40CEF0CEB0CE70C96
:10095000E20CDE0CD90CD50CD10CCD0CC80CC40C9F
:10096000C00CBB0CB70CB30CAF0CAB0CA60CA20CA0
:100970009E0C9A0C960C920C8D0C890C850C810C9B
:100980007D0C790C750C710C6D0C690C650C610C8F
:100990005D0C590C550C510C4D0C490C450C410C7F
:1009A0003D0C390C6A1862185A1853184B18431822
:1009B0003B1834182C1824181D1815180E18061872
:1009C000FF17F717EF17E817E017D917D217CA174D
:1009D000C317BB17B417AD17A5179E1797178F1717
:1009E000881781177A1772176B1764175D175617D8
:1009F0004F1747174017391732172B1724171D1792
:100A000016170F1708170117FA16F316ED16E61644
:100A1000DF16D816D116CA16C416BD16B616AF16EE
:100A2000A816A2169B1694168E16871680167A168E
:100A300073166D1666165F16591652164C16451625
:100A40003F16381632162B1625161F1618161216B4
:100A50000B160516FF15F815F215EC15E515DF1543
:100A6000D915D315CC15C615C015BA15B415AD15C5
:100A7000A715A1159B1595158F15891583157D153E
:100A8000771570156A1564155E15581553154D15B3
:100A9000471541153B1535152F15291523151D151E
:100AA000181512150C1506150015FB14F514EF1486
:100AB000E914E414DE14D814D214CD14C714C114EC
:100AC000BC14B614B114AB14A514A0149A14951444
:100AD0008F148A1484147F14791474146E14691496
:100AE00063145E14581453144E14481443143D14E4
:100AF000381433142D14281423141D14181413142B
:100B00000D1408140314FE13F813F313EE13E91372
:100B1000E413DE13D913D413CF13CA13C513C013B0
:100B2000BB13B513B013AB13A613A1139C139713E8
:100B300092138D13881311241FBECFEFD0E1DEBFB7
:100B4000CDBF11E0A0E0B1E0E6EBFBE102C0059013
:100B50000D92AE36B107D9F711E0AEE6B1E001C0B3
:100B60001D92A339B107E1F70E94A70A0C94D90D91
:100B70000C940000DF93CF930F92CDB7DEB769835B
:100B8000AB98A898882311F0A99A01C0A99885B3B9
:100B9000A89A27E030E0FE013196A898808190E085
:100BA000022E02C0959587950A94E2F780FF02C055
:100BB000A99A01C0A99885B3A89A215030408FEF17
:100BC0002F3F380751F7AB9A0F90CF91DF910895DF
:100BD0001F93182F6F70606B80E00E94BA05612F21
:100BE0006F7080E00E94BA0512951770106180E066
:100BF000612F0E94BA051F9108950F931F9380E003
:100C000060E00E94E80580E06EEA0E94BA0500E01C
:100C10000AC081E060E00E94BA051F5F1036C9F784
:100C20000F5F093011F010E0F4CF80E06FEA0E940E
:100C3000BA051F910F910895A39AAB9AA19AA9980A
:100C4000A09AA898A29AAA98AB9884EF91E028EC71
:100C500030E0F9013197F1F70197D9F7AA9A80E0CE
:100C600063E20E94BA0580E060E90E94BA0580E074
:100C700064EA0E94BA0580E06FE20E94BA0580E053
:100C800060E40E94BA0580E060EB0E94BA0580E053
:100C900060E10E94BA0580E060E00E94BA0580E051
:100CA00068EC0E94BA0580E061EA0E94BA0580E023
:100CB0006CEA0E94BA0580E067E00E94BA0580E015
:100CC0006FEA0E94BA050E94FD0580E067EA0E9473
:100CD000BA0588E893E128EC30E0F9013197F1F7A3
:100CE0000197D9F780E066EA0E94BA0588E893E1A7
:100CF00028EC30E0F9013197F1F70197D9F7089521
:100D000008951F93182F80E061E20E94BA051068D1
:100D100080E0612F0E94BA0580E060E20E94BA057F
:100D20001F910895089508950895089508950F93C3
:100D30001F93CF93DF9395E0899FC0011124EC01AD
:100D4000C451D0408C010B59104004571F4FFE0175
:100D50006491660F81E00E94BA052196C017D10701
:100D6000B1F781E060E00E94BA05DF91CF911F9159
:100D70000F910895CF93DF93EC0180E06EEA0E941B
:100D8000BA0503C021960E94970688818823D1F76F
:100D90006FEA0E94BA05DF91CF910895379A35988E
:100DA00086B1887F866086B987B18F73806487B982
:100DB0003D9810927A01339A789408953598089561
:100DC000359A08953D9808953D9A0895379A089563
:100DD00033983798089596B1987F982B96B90895CF
:100DE00097B18295880F880F807C9F73982B97B955
:100DF000089597B18F71907E892B87B90895349AA1
:100E0000369A089586B18074089510927A0197B148
:100E10008F71907E892B87B9349A369A80917A01A6
:100E20008823E1F324B135B1C90108950E94050773
:100E3000969587959695879508951F920F920FB670
:100E40000F9211248F9381E080937A018F910F90FC
:100E50000FBE0F901F901895482F87FF809590E048
:100E6000880F991F8F5F9040262F30E0BC01629F52
:100E7000C001639F900D729F900D1124892F9927B7
:100E800081509F4F969587958F5F47FF8095089576
:100E90001F920F920FB60F921124DF92EF92FF92E2
:100EA0000F931F932F933F934F935F936F937F9372
:100EB0008F939F93AF93BF93EF93FF9380917001B4
:100EC000909171018C51934020F080917201805F6C
:100ED00024C080917001909171018455924020F05E
:100EE00080917201885F19C08091700190917101A9
:100EF0008C58914020F0809172018C5F0EC08091DF
:100F0000700190917101843C910520F080917201F3
:100F10008E5F03C0809172018F5F80937201809118
:100F20007001909171018F5E9140F0F0E09172013B
:100F3000F0E0E459FD4FE4918E2F90E09BBD8ABD17
:100F4000E0917201EC5AF0E0E459FD4FE4918E2FEC
:100F500090E099BD88BDE0917201E655F0E0E4595A
:100F6000FD4FE4918E2F71C08091700190917101BD
:100F70008036910528F5E0917201F0E0E459FD4FCB
:100F8000E4918E2F69E10E942C0790E09BBD8ABD01
:100F9000E0917201EC5AF0E0E459FD4FE4918E2F9C
:100FA00069E10E942C0790E099BD88BDE091720133
:100FB000E655F0E0E459FD4FE4918E2F69E143C01E
:100FC000609170017091710180917201E82FF0E0E1
:100FD000E459FD4FD4906F55704080E090E026EECC
:100FE00030E040E050E00E94AC0A20E931E040E00F
:100FF00050E00E94DF0A79018A0189E190E0A0E0D7
:10100000B0E0E80EF91E0A1F1B1F8D2D6E2D0E94E9
:101010002C0790E09BBD8ABDE0917201EC5AF0E094
:10102000E459FD4FE4918E2F6E2D0E942C0790E025
:1010300099BD88BDE0917201E655F0E0E459FD4F9D
:10104000E4918E2F6E2D0E942C0790E090937900F2
:1010500080937800FF91EF91BF91AF919F918F9115
:101060007F916F915F914F913F912F911F910F91C0
:10107000FF90EF90DF900F900FBE0F901F9018958C
:101080001F920F920FB60F9211242F933F938F93BD
:101090009F93EF93FF9320917001309171018091A4
:1010A0006E0190916F012817390798F4109276011C
:1010B000809177018F5F809377019091000189176C
:1010C00070F11092770180917001909171010196F9
:1010D0001DC0209170013091710180916E0190913D
:1010E0006F0182179307B8F410927701809176010F
:1010F0008F5F8093760190910101891780F01092A3
:101100007601809170019091710101979093710126
:101110008093700104C01092770110927601809143
:10112000700190917101892B71F1E0917001F09142
:101130007101EE0FFF1FE459FC4F859194910197C7
:10114000909387008093860080917301882381F5B6
:101150008FB580688FBD8FB580628FBD8FB5886079
:101160008FBD81E08093730180918A00887F8160C8
:1011700080938A0080917C00806180937C008091C4
:101180007D00806113C08FB58F778FBD8FB58F7D48
:101190008FBD8FB5877F8FBD1092730180918A00BC
:1011A000887F80938A0080917D008F7E80937D0070
:1011B00080917401909175010196909375018093CF
:1011C0007401FF91EF919F918F913F912F910F901B
:1011D0000FBE0F901F901895BD9A8FB58F778FBD5A
:1011E000BE9A8FB58F7D8FBDBF9A8FB5877F8FBD1C
:1011F0008091720190E09BBD8ABD809172018C5AF2
:1012000090E099BD88BD80917201865590E09093E1
:1012100079008093780081E08FBD8EB5887F8160F2
:101220008EBD83E080938B0088E180938A008CE7F9
:1012300083BD8BE085BD86B7806886BF87B7806831
:1012400087BF08958E30910528F410926F01109297
:101250006E010CC023E0823F920710F40D9702C08C
:1012600084EE93E090936F0180936E0120916E0164
:1012700030916F012C5F3F4FC9010895882309F415
:1012800081E080930001809100010895882309F492
:1012900081E080930101809101010895A79AAF98A0
:1012A000A59AAD98A69AAE98089590E048EC50E0C3
:1012B00013C0AF9A28E532E0FA013197F1F72150D7
:1012C0003040D1F7AF9828E037E0FA013197F1F7D5
:1012D00021503040D1F79F5F981758F308954F92EF
:1012E0005F926F927F928F929F92AF92BF92CF92B6
:1012F000DF92EF92FF920F931F93CF93DF930E94A1
:10130000EC08D098D898D198D998D298DA98AA248D
:10131000C0E0D0E0BB243BE7C32E31E0D32E22E077
:10132000422E21E0522E95E1692E91E0792E84E241
:10133000882E81E0982E80917401909175018C1710
:101340009D0708F49CC0C0917401D0917501CC59DF
:10135000DF4F80E00E9405078C0181E00E941607A4
:10136000F82E82E00E941607E82EC8010E9422098A
:101370008C018F2D0E943E09F82E8E2D0E94460969
:10138000E82E8DB79EB708970FB6F8949EBF0FBE94
:101390008DBFEDB7FEB73196ADB7BEB71296DC92F2
:1013A000CE92119753824282C8016AE070E00E9497
:1013B000CB0A75836483C8016AE070E00E94CB0A9F
:1013C000978386830E94010B8DB79EB708960FB650
:1013D000F8949EBF0FBE8DBF82E061E00E94E805D9
:1013E000C6010E94BA0600D000D000D0EDB7FEB70B
:1013F0003196ADB7BEB71296DC92CE92119773823A
:101400006282F48215820E94010B8DB79EB7069608
:101410000FB6F8949EBF0FBE8DBF82E063E00E94BE
:10142000E805C6010E94BA0600D000D000D0EDB792
:10143000FEB73196ADB7BEB71296DC92CE92119739
:1014400093828282E48215820E94010B8DB79EB73F
:1014500006960FB6F8949EBF0FBE8DBF82E065E082
:101460000E94E805C6010E94BA06B39495E0B91639
:1014700019F4AA24A39405C0AAE0BA1621F0AA2060
:1014800021F0AD9A03C0AA24BB24AD9885B353CFF5
:1014900082E060E00E94E80583E391E00E94BA06E2
:1014A00082E062E00E94E80582E491E00E94BA06D0
:1014B00082E063E00E94E80587E491E00E94BA06BA
:1014C00082E065E00E94E80586E591E00E94BA06A8
:1014D00082E066E00E94E80581E691E00E94BA069B
:1014E00080E395E728EC30E0F9013197F1F70197B7
:1014F000D9F70E94FD050895F8940E944E090E94B4
:10150000CE0688E893E128EC30E0F9013197F1F755
:101510000197D9F70E941C068AE00E94810681E0AB
:101520000E94920682E00E94550988E893E128EC27
:1015300030E0F9013197F1F70197D9F70E94FD05E5
:101540000E94480A81E00E945509789408950E94FB
:101550007C0A0E946F09FFCF629FD001739FF00148
:10156000829FE00DF11D649FE00DF11D929FF00D33
:10157000839FF00D749FF00D659FF00D9927729F6A
:10158000B00DE11DF91F639FB00DE11DF91FBD01F5
:10159000CF0111240895AA1BBB1B51E107C0AA1F4C
:1015A000BB1FA617B70710F0A61BB70B881F991F04
:1015B0005A95A9F780959095BC01CD010895A1E2B7
:1015C0001A2EAA1BBB1BFD010DC0AA1FBB1FEE1FBD
:1015D000FF1FA217B307E407F50720F0A21BB30B08
:1015E000E40BF50B661F771F881F991F1A9469F784
:1015F00060957095809590959B01AC01BD01CF01E0
:101600000895AEE0B0E0E7E0FBE00C94B00D0D898A
:101610001E8986E08C831A8309838FEF9FE79E8360
:101620008D839E01275E3F4FCE0101966F89788D95
:10163000A9010E94250B2F813885020F131FF80185
:1016400010822E96E4E00C94CC0DABE0B0E0EBE21F
:10165000FBE00C94A20D3C012B015A01FC01178206
:101660001682838181FD03C06FEF7FEFC6C19AE0D0
:10167000892E1E010894211C311CF3012381F201E3
:1016800023FD859123FF81912F01882309F4B2C1A5
:10169000853239F423FD859123FF81912F01853215
:1016A00029F490E0B3010E94180DE7CF982FFF2492
:1016B000EE249924FFE1FF15D0F09B3269F09C32B3
:1016C00028F4903259F0933291F40EC09D3249F0D3
:1016D000903369F441E024C052E0F52A84E0F82A0E
:1016E00028C098E0F92A25C0E0E1FE2A22C0F7FCD4
:1016F00029C0892F80538A3070F4F6FE05C0989C6B
:10170000902C1124980E15C0E89CE02C1124E80EB2
:10171000F0E2FF2A0EC09E3229F4F6FC6BC140E4D1
:10172000F42A07C09C3619F450E8F52A02C098360E
:1017300049F4F20123FD959123FF91912F01992303
:1017400009F0B8CF892F8554833018F08052833048
:1017500038F444E050E0A40EB51E5FE359830FC097
:10176000933631F0933779F0933509F056C020C0A5
:10177000F5018081898342E050E0A40EB51E61012D
:1017800001E010E012C0F501C080D180F6FC03C07A
:101790006FEF7FEF02C0692D70E042E050E0A40ED1
:1017A000B51EC6010E940D0D8C015FE7F52214C025
:1017B000F501C080D180F6FC03C06FEF7FEF02C05F
:1017C000692D70E042E050E0A40EB51EC6010E94F3
:1017D000020D8C0150E8F52AF3FE07C01AC080E222
:1017E00090E0B3010E94180DEA948E2D90E0081746
:1017F0001907A8F30EC0F601F7FC8591F7FE819159
:101800006F0190E0B3010E94180DE110EA940150BD
:1018100010400115110579F7EAC0943611F0993698
:1018200069F5F7FE08C0F5012081318142815381BD
:1018300084E090E00AC0F501808191819C014427F9
:1018400037FD4095542F82E090E0A80EB91E9FE628
:10185000F92257FF09C050954095309521953F4F8B
:101860004F4F5F4FE0E8FE2ACA01B901A1012AE00B
:1018700030E00E94440DD82ED21840C0953729F48C
:101880001F2D1F7E2AE030E01DC01F2D197F9F36BF
:1018900061F0903720F4983509F0ACC00FC0903754
:1018A00039F0983709F0A6C004C028E030E00AC03B
:1018B000106114FD146020E130E004C014FD1660D6
:1018C00020E132E017FF08C0F5016081718182815B
:1018D000938144E050E008C0F50180819181BC0112
:1018E00080E090E042E050E0A40EB51EA1010E940D
:1018F000440DD82ED2188FE7F82EF122F6FE0BC039
:101900005EEFF522D91438F4F4FE07C0F2FC05C0EE
:101910008FEEF82202C01D2D01C0192DF4FE0DC05E
:10192000FE01ED0DF11D8081803319F499EEF9224D
:1019300008C01F5FF2FE05C003C08F2D867809F036
:101940001F5F0F2DF3FC14C0F0FE0FC01E1510F02A
:101950009D2C0BC09D2C9E0C911A1E2D06C080E262
:1019600090E0B3010E94180D1F5F1E15C0F304C064
:101970001E1510F4E11A01C0EE2404FF0FC080E32D
:1019800090E0B3010E94180D02FF1DC001FD03C0CD
:1019900088E790E00EC088E590E00BC0802F867845
:1019A00091F001FF02C08BE201C080E2F7FC8DE202
:1019B00090E0B3010E94180D06C080E390E0B301EF
:1019C0000E94180D9A94D914C0F3DA94F101ED0D28
:1019D000F11D808190E0B3010E94180DDD20A9F770
:1019E00006C080E290E0B3010E94180DEA94EE2058
:1019F000C1F743CEF30166817781CB012B96E2E1FB
:101A00000C94BE0DFC010590615070400110D8F798
:101A1000809590958E0F9F1F0895FC016150704036
:101A200001900110D8F7809590958E0F9F1F089513
:101A30000F931F93CF93DF938C01EB018B8181FF79
:101A40001BC082FF0DC02E813F818C819D81281794
:101A5000390764F4E881F9810193F983E88306C0CA
:101A6000E885F985802F0995892B31F48E819F8136
:101A700001969F838E8302C00FEF1FEFC801DF9195
:101A8000CF911F910F910895FA01AA27283051F1A3
:101A9000203181F1E8946F936E7F6E5F7F4F8F4F9F
:101AA0009F4FAF4FB1E03ED0B4E03CD0670F781FFE
:101AB000891F9A1FA11D680F791F8A1F911DA11DE3
:101AC0006A0F711D811D911DA11D20D009F468941C
:101AD0003F912AE0269F11243019305D3193DEF6C4
:101AE000CF010895462F4770405D4193B3E00FD07A
:101AF000C9F7F6CF462F4F70405D4A3318F0495D65
:101B000031FD4052419302D0A9F7EACFB4E0A69547
:101B10009795879577956795BA95C9F70097610569
:101B2000710508959B01AC010A2E069457954795BF
:101B300037952795BA95C9F7620F731F841F951FB4
:101B4000A01D08952F923F924F925F926F927F92C5
:101B50008F929F92AF92BF92CF92DF92EF92FF92BD
:101B60000F931F93CF93DF93CDB7DEB7CA1BDB0B69
:101B70000FB6F894DEBF0FBECDBF09942A8839880E
:101B800048885F846E847D848C849B84AA84B98415
:101B9000C884DF80EE80FD800C811B81AA81B98121
:101BA000CE0FD11D0FB6F894DEBF0FBECDBFED0135
:061BB0000895F894FFCF38
:101BB60001014652513A20253033642E25303164D6
:101BC60020487A20004143433A202530336420736D
:101BD600656320004445433A20253033642073650D
:101BE60063200020205350574D20746573742121C3
:101BF60021006279203A0053682E204E6F7572627A
:101C0600616B68736800436F707972696768743ACC
:0E1C160000202020204F5A48414E204B440011
:00000001FF
